:1000000051EF02F000000000FCEF01F000000000E2
:0C00100000000000000000003EEF02F0C5
:10001C000B6A0A6A096A086A0E6A033408360450C5
:10002C00085E0550D8A0053C095E0650D8A0063CD9
:10003C000A5E0750D8A0073C0B5EE86AD8A0010EF8
:10004C000E5E0336070E0C6E0334083609360A367C
:10005C000B360E36045003A012D0085E0550D8A003
:10006C00053C095E0650D8A0063C0A5E0750D8A095
:10007C00073C0B5EE86AD8A0010E0E5E11D0082674
:10008C000550D8B0053C09260650D8B0063C0A26C7
:10009C000750D8B0073C0B26E86AD8B0010E0E26E4
:1000AC0003360C2ED1D70234083609360A360B36F5
:1000BC000E36045003A012D0085E0550D8A0053CA3
:1000CC00095E0650D8A0063C0A5E0750D8A0073C33
:1000DC000B5EE86AD8A0010E0E5E11D00826055002
:1000EC00D8B0053C09260650D8B0063C0A26075065
:1000FC00D8B0073C0B26E86AD8B0010E0E260236A3
:10010C00070E0C6E0234083609360A360B360E36DC
:10011C00045002A012D0085E0550D8A0053C095E20
:10012C000650D8A0063C0A5E0750D8A0073C0B5ED0
:10013C00E86AD8A0010E0E5E11D008260550D8B082
:10014C00053C09260650D8B0063C0A260750D8B004
:10015C00073C0B26E86AD8B0010E0E2602360C2E90
:10016C00D1D70134083609360A360B360E36045010
:10017C0002A012D0085E0550D8A0053C095E0650BE
:10018C00D8A0063C0A5E0750D8A0073C0B5EE86A74
:10019C00D8A0010E0E5E11D008260550D8B0053C33
:1001AC0009260650D8B0063C0A260750D8B0073CA2
:1001BC000B26E86AD8B0010E0E260136070E0C6E1F
:1001CC000134083609360A360B360E36045001A0B7
:1001DC0012D0085E0550D8A0053C095E0650D8A088
:1001EC00063C0A5E0750D8A0073C0B5EE86AD8A014
:1001FC00010E0E5E11D008260550D8B0053C09261C
:10020C000650D8B0063C0A260750D8B0073C0B263F
:10021C00E86AD8B0010E0E2601360C2ED1D7003468
:10022C00083609360A360B360E36045001A012D0A9
:10023C00085E0550D8A0053C095E0650D8A0063CC7
:10024C000A5E0750D8A0073C0B5EE86AD8A0010EE6
:10025C000E5E11D008260550D8B0053C0926065074
:10026C00D8B0063C0A260750D8B0073C0B26E86AE3
:10027C00D8B0010E0E260036070E0C6E0034083670
:10028C0009360A360B360E36045000A012D0085E22
:10029C000550D8A0053C095E0650D8A0063C0A5E65
:1002AC000750D8A0073C0B5EE86AD8A0010E0E5E82
:1002BC0011D008260550D8B0053C09260650D8B0F8
:1002CC00063C0A260750D8B0073C0B26E86AD8B083
:1002DC00010E0E2600360C2ED1D700B00ED00450D5
:1002EC0008260550D8B0053C09260650D8B0063C67
:0C02FC000A260750D8B0073C0B26120061
:10030800336A346A8084000000008094336A346A57
:100318003250345C02E13150335C0DE2030E0C6E56
:10032800970E0D6E0D2EFED70C2EFCD70000000088
:08033800334A342AEDD712000C
:10034000A6A202D00000FCD7A69C31C0A9FF32C0F3
:10035000A8FFA69EA684F2CF00F0F29E550EA76ECF
:10036000AA0EA76EA68200BE02D0F29E01D0F28E27
:04037000A69412003D
:1003740031C004F032C005F0000E066E076E400E68
:10038400006E420E016E0F0E026E000E036E44DE0E
:02039400120055
:100396000900F5CFE6FF0006FBE10106F9E11200D0
:1003A6003150020A07E03150080A04E03150100AC1
:1003B60001E002D0818201D081923150040A07E027
:1003C6003150080A04E03150100A01E002D0818061
:1003D60001D081903150100A02E1808A01D0809AC2
:0203E600120003
:1003E800A69C31C0A9FFA69EA680A8CF00F0120047
:1003F80000C01CF001C01BF002C01AF003C019F0C5
:1004080004C018F02750FF08036E28C004F0FF0E40
:10041800045604C000F0016A00C0D7FF03C0D6FF2D
:1004280080840000000080942F2A100E2F5C03E3C4
:100438002F6A254A262A2650225C02E12550215C93
:100448000DE2006A80B2002A002A010E001600B0F0
:1004580002D0809201D08082256A266AF2941CC05C
:1004680000F01BC001F01AC002F019C003F018C058
:0404780004F011007B
:10047C00156ED8CF16F0E0CF17F0F80ECF6E2F0E0A
:10048C00CE6E2D4A2E2A9E901750E06E1650D86EC6
:06049C00153A15381000AE
:1004A20087EC03F00F0EC16E928093949392939017
:1004B200929A92989296929492928194010E316EAF
:1004C20071DF8088808680948082D596D594D5927B
:1004D200D590D59AD59CD59ECD8ECD80D08E9D803F
:1004E2009F90F28AF29EF28C316A7DDF00C030F07A
:1004F200010E316E78DF00C002F0016A3050012433
:10050200216E000E0220226E020E316E6CDF00C0E0
:1005120030F0030E316E67DF00C002F0016A305026
:1005220001242B6E000E02202C6E040E316E5BDF56
:1005320000C030F0050E316E56DF00C002F0016AD5
:1005420030500124236E000E0220246E2BC027F0AF
:100552002CC028F028322732289E28322732289EA3
:1005620028322732289E28322732289E80B047D050
:10057200256A266A010E316E15DF80B001D0FDD7E3
:1005820080A008D0254A262A320E316E000E326E25
:10059200BADEF6D725C023F026C024F0040E316E51
:1005A20025C032F0CCDE050E316E24C000F0016AA7
:1005B20000C032F0C4DE256A266A80B001D0FDD7C1
:1005C20080A008D0254A262A320E316E000E326EE5
:1005D2009ADEF6D780B001D0FDD725C021F026C023
:1005E20022F0256A266A316A21C032F0A8DE010EA5
:1005F200316E22C000F0016A00C032F0A0DE8098A5
:100602000B0E0B6E260E0C6E5D0E0D6E0D2EFED7B2
:100612000C2EFCD70B2EFAD700000000808825C0D4
:1006220001F026C002F0254A262A2450025C02E18B
:100632002350015C06E2280E316E000E326E63DE3C
:10064200EED7256A266A100E316EACDEF28ED58E9A
:10065200295240E12A50000A3DE180A001D03AD05F
:100662001D501E24016E000E1DBEFF0E1F20026EC5
:1006720001C01EF002C01FF00250010802E1015049
:10068200900804E2320E1E6E000E1F6E270E0C6ED4
:10069200F50E0D6E0D2EFED70C2EFCD71EC031F0BE
:1006A2001FC032F066DE00C02BF001C02CF000C08B
:1006B20027F001C028F028322732289E283227321C
:1006C200289E28322732289E28322732289E010E61
:1006D200206EBED720520EE0206A020E316E2BC071
:1006E20032F02DDE030E316E2CC000F0016A00C024
:0806F20032F025DEADD7FFD781
:10070E0010EE1DF0130E006E010E016EFA0EF66E57
:0E071E00060EF76E000EF86ECBEC01F0120026
:0106FA0001FE
:0206FB005000AD
:0106FD0000FC
:0206FE000000FA
:020700000000F7
:020702000000F5
:020704000000F3
:0107060000F2
:0107070000F1
:020708000000EF
:02070A000000ED
:01070C0000EC
:020000040030CA
:0E000000000C1F1EFF8381FF0FC00FE00F409A
:00000001FF
